:100000000C942A000C94D7180C94FE180C94251903
:100010000C9447000C9447000C9447000C941D0D61
:100020000C9447000C9447000C9447000C94C71C98
:100030000C9447000C94761D0C9447000C944700D8
:100040000C9447000C9447000C9447000C94470014
:100050000C94470011241FBECFE5D8E0DEBFCDBF12
:1000600012E0A0E6B0E0E6E5F1E402C005900D92F2
:10007000AA3CB107D9F717E0AAECB2E001C01D9283
:10008000A93FB107E1F70E94C31F0C94A9200C946B
:100090000000EF92FF920F931F937B018C0120E0F1
:1000A00030E040E05FE40E94C50388238CF0C80183
:1000B000B70120E030E040E05FE40E94C1010E940F
:1000C00083049B01AC01205030404040504806C0A2
:1000D000C801B7010E9483049B01AC01B901CA01A8
:1000E0001F910F91FF90EF900895A0E0B0E0EBE733
:1000F000F0E00C943820DC012B01FA019C91923045
:1001000008F439C1EB018881823008F433C194309E
:1001100069F4843009F02FC111969C91119789815F
:10012000981709F428C1A4EAB1E025C1843009F484
:1001300021C18230A9F4923009F01DC19A01AD01AC
:1001400088E0EA010990AE01E90109929E0181501F
:10015000C1F7E201898111969C918923818308C1AD
:10016000923009F407C112962D903C901397EB0141
:100170008A819B811496AD90BD90CD90DC901797AD
:10018000EC80FD800E811F819101281B390BB90184
:1001900037FF04C066277727621B730B6032710537
:1001A0000CF061C0121613066CF537014801062EDB
:1001B00004C096948794779467940A94D2F721E0C8
:1001C00030E040E050E004C0220F331F441F551FB1
:1001D0006A95D2F721503040404050402E213F21B7
:1001E00040235123211531054105510521F021E01E
:1001F00030E040E050E079018A01E628F72808293C
:1002000019293CC0232BD1F1260E371E350146019A
:10021000062E04C096948794779467940A94D2F734
:1002200021E030E040E050E004C0220F331F441FC3
:10023000551F6A95D2F721503040404050402A2146
:100240003B214C215D21211531054105510521F04E
:1002500021E030E040E050E059016A01A628B728CB
:10026000C828D9280BC0821593052CF01C01AA249C
:10027000BB24650103C0EE24FF24870111969C91E5
:10028000D20111968C91981709F445C0992339F041
:10029000A80197012A193B094C095D0906C0A6016E
:1002A00095012E193F09400B510B57FD08C01182D3
:1002B0003382228224833583468357831DC081E0A5
:1002C00081833382228288279927DC01821B930B4A
:1002D000A40BB50B84839583A683B7830DC0220F2F
:1002E000331F441F551F24833583468357838281E0
:1002F000938101979383828324813581468157813D
:10030000DA01C9010197A109B1098F5F9F4FAF4F72
:10031000BF4328F30BC0918333822282EA0CFB1C7B
:100320000C1D1D1DE482F5820683178383E0808304
:10033000248135814681578157FF1AC0C901AA27F8
:1003400097FDA095BA2F81709070A070B0705695EF
:10035000479537952795822B932BA42BB52B848318
:100360009583A683B7838281938101969383828349
:10037000DF0101C0D201CD01CDB7DEB7E2E10C94BF
:100380005420A0E2B0E0E7ECF1E00C944420698353
:100390007A838B839C832D833E834F835887E9E048
:1003A000EE2EF12CEC0EFD1ECE010196B7010E943F
:1003B000FB058E010F5E1F4FCE010596B8010E940E
:1003C000FB058A8991E089278A8BC701B801AE01B4
:1003D000475E5F4F0E9475000E942605A096E6E0EA
:1003E0000C946020A0E2B0E0E8EFF1E00C9444202F
:1003F00069837A838B839C832D833E834F835887C5
:10040000F9E0EF2EF12CEC0EFD1ECE010196B701A6
:100410000E94FB058E010F5E1F4FCE010596B801AD
:100420000E94FB05C701B801AE01475E5F4F0E9405
:1004300075000E942605A096E6E00C946020A0E2DC
:10044000B0E0E5E2F2E00C94382069837A838B8394
:100450009C832D833E834F835887CE010196BE0136
:10046000675F7F4F0E94FB05CE010596BE016F5E60
:100470007F4F0E94FB059985923088F089898230F0
:10048000C8F0943019F4823051F404C0843029F457
:10049000923081F484EA91E0C6C0923049F420E0C1
:1004A0009A858A89981321E02A87CE010996BBC0D4
:1004B000823049F420E09A858A89981321E02A8BBA
:1004C000CE014196B0C02D843E844F8458886D88FB
:1004D0007E888F88988CEE24FF248701AA24BB2471
:1004E000650140E050E060E070E0E0E0F0E0C10174
:1004F00081709070892BE9F0E60CF71C081D191D1E
:100500009A01AB012A0D3B1D4C1D5D1D80E090E062
:10051000A0E0B0E0E614F7040805190520F481E036
:1005200090E0A0E0B0E0BA01A901480F591F6A1F8E
:100530007B1FAA0CBB1CCC1CDD1C97FE08C081E0F5
:1005400090E0A0E0B0E0A82AB92ACA2ADB2A3196B6
:10055000E032F10549F0660C771C881C991C569412
:10056000479437942794C3CFFA85EA892B893C892D
:100570008B859C85280F391F2E5F3F4F17C0CA01FE
:1005800081709070892B61F016950795F794E79428
:1005900080E090E0A0E0B0E8E82AF92A0A2B1B2BC3
:1005A00076956795579547952F5F3F4F77FDE7CF36
:1005B0000CC0440F551F661F771F17FD4160EE0CDE
:1005C000FF1C001F111F21503040403090E05907A0
:1005D00090E0690790E4790760F32B8F3C8FDB0193
:1005E000CA018F779070A070B07080349105A1051A
:1005F000B10561F447FD0AC0E114F10401051105DC
:1006000029F0405C5F4F6F4F7F4F40781A8EFE1786
:1006100011F081E08A8F4D8F5E8F6F8F78A383E01A
:10062000898FCE0149960E942605A096E2E10C949E
:100630005420A8E1B0E0EFE1F3E00C94402069839E
:100640007A838B839C832D833E834F835887B9E0C5
:10065000EB2EF12CEC0EFD1ECE010196B7010E948F
:10066000FB058E010F5E1F4FCE010596B8010E945B
:10067000FB052985223008F47EC03989323010F418
:10068000B8017CC08A859A8989278A87243011F02D
:10069000223031F4231709F06EC064EA71E06EC0B5
:1006A000343039F41D861E861F86188A1C861B86E8
:1006B00004C0323021F484E08987B7015FC02B8504
:1006C0003C858B899C89281B390B3C872B87ED84C3
:1006D000FE840F851889AD88BE88CF88D88CEA142F
:1006E000FB040C051D0540F4EE0CFF1C001F111F40
:1006F000215030403C872B8720E030E040E050E044
:1007000080E090E0A0E0B0E460E070E0EA14FB0478
:100710000C051D0540F0282B392B4A2B5B2BEA18C2
:10072000FB080C091D09B695A79597958795EE0CC2
:10073000FF1C001F111F6F5F7F4F6F31710531F775
:10074000DA01C9018F779070A070B0708034910584
:10075000A105B10561F427FD0AC0E114F10401050A
:10076000110529F0205C3F4F4F4F5F4F20782D87B8
:100770003E874F87588BBE01675F7F4FCB010E943A
:1007800026056896EAE00C945C20A8E1B0E0EBEC6A
:10079000F3E00C94442069837A838B839C832D83BC
:1007A0003E834F83588789E0E82EF12CEC0EFD1E26
:1007B000CE010196B7010E94FB058E010F5E1F4F0F
:1007C000CE010596B8010E94FB058985823040F074
:1007D0008989823028F0C701B8010E94730601C0E0
:1007E0008FEF6896E6E00C946020A8E1B0E0EBEFB4
:1007F000F3E00C94442069837A838B839C832D835C
:100800003E834F83588789E0E82EF12CEC0EFD1EC5
:10081000CE010196B7010E94FB058E010F5E1F4FAE
:10082000CE010596B8010E94FB058985823040F013
:100830008989823028F0C701B8010E94730601C07F
:1008400081E06896E6E00C946020A8E0B0E0EBE27E
:10085000F4E00C9441209B01AC0183E08983DA0130
:10086000C9018827B7FD83959927AA27BB27B82EEA
:10087000211531054105510519F482E089833AC0FB
:100880008823A9F0203080E0380780E0480780E81E
:10089000580729F460E070E080E09FEC30C0EE245F
:1008A000FF248701E21AF30A040B150B02C0790139
:1008B0008A018EE1C82ED12CDC82CB82ED82FE82B1
:1008C0000F831887C801B7010E94D7040197181633
:1008D000190684F4082E04C0EE0CFF1C001F111F23
:1008E0000A94D2F7ED82FE820F831887C81AD90ABC
:1008F000DC82CB82BA82CE0101960E942605289620
:10090000E9E00C945D20ACE0B0E0E9E8F4E00C94A0
:10091000482069837A838B839C83CE010196BE0134
:100920006B5F7F4F0E94FB058D81823061F18230C9
:1009300050F1843021F48E81882351F12EC02F8113
:10094000388537FD20C06E812F3131051CF06623BC
:10095000F9F023C08EE190E0821B930B29853A8544
:100960004B855C8504C056954795379527958A95A4
:10097000D2F76623B1F050954095309521953F4FC1
:100980004F4F5F4F0EC020E030E040E050E009C024
:100990002FEF3FEF4FEF5FE704C020E030E040E093
:1009A00050E8B901CA012C96E2E00C946420EF9261
:1009B000FF920F931F937B018C0180E0E81680E08B
:1009C000F80681E0080780E0180788F48FEFE81642
:1009D000F1040105110531F028F088E090E0A0E075
:1009E000B0E017C080E090E0A0E0B0E012C080E08E
:1009F000E81680E0F80680E0080781E0180728F094
:100A000088E190E0A0E0B0E004C080E190E0A0E0E8
:100A1000B0E020E230E040E050E0281B390B4A0B08
:100A20005B0B04C016950795F794E7948A95D2F767
:100A3000F701E455FE4F8081281B31094109510916
:100A4000C9011F910F91FF90EF900895DF92EF92EF
:100A5000FF920F931F93FC01E480F58006811781BC
:100A6000D1808081823048F480E090E0A0E1B0E065
:100A7000E82AF92A0A2B1B2BA5C0843009F49FC051
:100A8000823021F4EE24FF24870105C0E114F10433
:100A90000105110519F4E0E0F0E096C06281738170
:100AA0009FEF623879070CF05BC022E83FEF261B0E
:100AB000370B2A3131052CF020E030E040E050E0E7
:100AC0002AC0B801A701022E04C0769567955795F4
:100AD00047950A94D2F781E090E0A0E0B0E004C02E
:100AE000880F991FAA1FBB1F2A95D2F70197A1094A
:100AF000B1098E219F21A023B1230097A105B10543
:100B000021F081E090E0A0E0B0E09A01AB01282B59
:100B1000392B4A2B5B2BDA01C9018F779070A070BB
:100B2000B07080349105A105B10539F427FF09C0E3
:100B3000205C3F4F4F4F5F4F04C0215C3F4F4F4FF2
:100B40005F4FE0E0F0E02030A0E03A07A0E04A0785
:100B5000A0E45A0710F0E1E0F0E079018A0127C033
:100B60006038710564F5FB01E158FF4FD801C701FA
:100B70008F779070A070B07080349105A105B10599
:100B800039F4E7FE0DC080E490E0A0E0B0E004C0DE
:100B90008FE390E0A0E0B0E0E80EF91E0A1F1B1FF3
:100BA00017FF05C016950795F794E794319687E0EF
:100BB00016950795F794E7948A95D1F705C0EE242A
:100BC000FF248701EFEFF0E06E2F679566276795AA
:100BD000902F9F77D794DD24D7948E2F8695492F19
:100BE000462B582F5D29B701CA011F910F91FF9025
:100BF000EF90DF900895FC01DB014081518122815B
:100C0000622F6F7770E0221F2227221F9381892F86
:100C1000880F822B282F30E0991F9927991F119652
:100C20009C93119721153105A9F5411551056105D1
:100C3000710511F482E037C082E89FEF13969C9310
:100C40008E9312979A01AB0167E0220F331F441F66
:100C5000551F6A95D1F783E08C930DC0220F331F87
:100C6000441F551F12968D919C91139701971396CF
:100C70009C938E931297203080E0380780E04807DD
:100C800080E4580758F314962D933D934D935C934D
:100C9000179708952F3F310579F4411551056105E6
:100CA000710519F484E08C93089564FF03C081E01A
:100CB0008C9312C01C9210C02F57304013963C9357
:100CC0002E93129783E08C9387E0440F551F661F85
:100CD000771F8A95D1F7706414964D935D936D9349
:100CE0007C93179708951F93DC01FB019C91923030
:100CF00008F447C08081823008F443C0943051F436
:100D000011961C91843099F58181682F70E0611BE8
:100D100071093FC0843021F0923031F48230B9F152
:100D20008181882389F12DC011961C911197823001
:100D3000F1F081811817D9F412962D913C911397F7
:100D4000828193818217930794F028173907BCF0AA
:100D500014968D919D910D90BC91A02D248135818B
:100D600046815781281739074A075B0718F4112372
:100D700041F00AC082179307A407B50740F4112376
:100D800019F061E070E005C06FEF7FEF02C060E036
:100D900070E0CB011F9108958091CA02882321F051
:100DA0008091CB02811181E01092CA021092CB0295
:100DB00008958F929F92AF92BF92CF92DF92EF925F
:100DC000FF920F931F93182F8AE062E040E00E9489
:100DD00096119093CD028093CC028CEC882E82E009
:100DE000982E81E597E060E670E045E550E09401DB
:100DF000012FEE24FF24CC24DD24AA24BB240E944E
:100E0000E71685E197E068E670E045E550E094017B
:100E10000E94E7161F910F91FF90EF90DF90CF9007
:100E2000BF90AF909F908F900895CF92DF92EF92F6
:100E3000FF920F931F93DF93CF9300D0CDB7DEB710
:100E40007C011A82198200E010E06E010894C11C36
:100E5000D11C1FC0F70180819181B60140E050E0B4
:100E600020E00E947D10813011F001E011C00023CC
:100E700051F40FB6F8940F928091CB028F5F80935C
:100E8000CB020F900FBE89819A8101969A83898344
:100E90001F5F1330FCF288EC90E00E94E81510E030
:100EA000D9CF9F92AF92BF92CF92DF92EF92FF92F3
:100EB0000F931F93DF93CF9300D0CDB7DEB7982E5B
:100EC000C92EEE24FF24DD245E010894A11CB11C70
:100ED00023C0F80180819181B50140E050E020E01D
:100EE0000E94B10F8130C1F429813A812E153F054E
:100EF00019F0DD24D3940CC0DD2051F40FB6F89422
:100F00000F928091CA028F5F8093CA020F900FBE2A
:100F100079010894E11CF11C092D1C2DF801808138
:100F200091810E94790D8823A1F684EB90E00E94C4
:100F3000E815F2CFEF92FF920F931F93DC01159605
:100F4000ED91FC911697E680F7808701045F1F4FB3
:100F5000C8010E94180C8FEF92E0B8010E94C70BE5
:100F600020E0E091CE02F091CF02D70156969C91FD
:100F70008689981708F021E0822F1F910F91FF902A
:100F8000EF900895FF920F931F93CF93DF9399E013
:100F9000F92E21C0F894E0910403F0910503068135
:100FA0001781C8010C960E94180C7894E8012296CB
:100FB000CE010E94180CF80196898091D002891701
:100FC00010F49093D0029F9DC001112489529D4F2F
:100FD000BE010E94C70B8091FF028823D9F60E94B0
:100FE000E4112091D1023091D202821B930B909395
:100FF000D4028093D30289E0F82E53C001969093D7
:10100000D6028093D502215030403093D4022093F1
:10101000D302892B09F03EC02091FB023091FC02E3
:101020008091FD029091FE029093FC028093FB025E
:101030003093FE022093FD022DC00580F681E02D45
:10104000C681D7812091D5023091D6028A819B81B9
:101050002817390730F1F8948E010E5F1F4FC80131
:101060000E94180C8C899D89892B21F0CE010C9649
:101070000E94180C78949E898091D002891710F4F0
:101080009093D0029F9DC001112489529D4FB801B9
:101090000E94C70BE091FB02F091FC028081882343
:1010A00061F62091D3023091D4028091D5029091C3
:1010B000D6022115310509F0A1CF9093D202809379
:1010C000D1029091D00229E006C0992319F4109220
:1010D000D00232C09150929FD0011124A952BD4F2D
:1010E0008C91882391F39093D0021196ED91FC910D
:1010F00012970280F381E02D1296FC93EE931197E4
:10110000CD010396E817F90731F482819381129695
:101110009C938E9311971196ED91FC9112970680F6
:10112000F781E02DF093CF02E093CE022081318150
:10113000CF016789F9010995DF91CF911F910F9137
:10114000FF9008950F931F93CF93DF93EB010091CE
:10115000D5021091D602080F191F8091CE029091EE
:10116000CF0202960E94180CE091CE02F091CF02BD
:10117000138302838091D5029091D602BF016E5FE6
:101180007F4F0817190728F48091FD029091FE0205
:1011900004C08091FB029091FC020E94E60B209714
:1011A00049F06091CE027091CF02645F7F4FCE0113
:1011B0000E94E60BDF91CF911F910F910895AF929E
:1011C000BF92CF92DF92EF92FF920F931F93CF9334
:1011D000DF936C01B62EA42E8AE190E00E94FA0AF9
:1011E000EC01009711F48FEF59C08091CE029091DD
:1011F000CF02892B21F5D093CF02C093CE0287ED89
:1012000092E00E94B30B80EE92E00E94B30B29EEB5
:10121000E22E22E0F22EC7010E94B30B02EF12E091
:10122000C8010E94B30B8FEF92E00E94B30BF092C3
:10123000FC02E092FB021093FE020093FD02EB2CF5
:10124000BB2011F0EE24E394198E188EEE8AAF8A3B
:10125000FE01C192D1928F01CF010E94C30BCE013A
:101260000C960E94C30BD987C887DB8BCA8B82E0A0
:1012700090E08E1991099D878C879E898091D0027C
:10128000891710F49093D00289E0989FC00111242F
:1012900089529D4FB8010E94C70B81E0DF91CF9129
:1012A0001F910F91FF90EF90DF90CF90BF90AF9084
:1012B0000895FC010FB6F8940F922081318160955A
:1012C000709562237323718360830F900FBEC901F1
:1012D0000895FC01808191810895BA010E94590905
:1012E0000895CF93DF93EC010E94DE1106C08F8139
:1012F000988560E072E00E943B138A818823B9F7E9
:10130000CE010E94EA0A0E94F114DF91CF91089564
:10131000CF92DF92EF92FF920F931F93CF93DF93C1
:101320008B01EC0185E0E82EF12CEC0EFD1E0E94F5
:10133000DE11EF81F88588819981802B912B99832B
:10134000888300E010E024C0D280C3808081918136
:10135000BC016070AC0150702881398192FD05C0DC
:1013600024233523232B31F40FC0242335232417C2
:10137000350751F470FF02C0042B152B6881798169
:101380007260CF010E943B138D2D9C2D9C01F901B1
:10139000EE15FF05C9F60095109588819981802387
:1013A0009123998388830E94F11488819981DF9128
:1013B000CF911F910F91FF90EF90DF90CF90089504
:1013C000BA010E9488090895AF92BF92CF92DF922E
:1013D000EF92FF920F931F93CF93DF937B01A42E85
:1013E000B22E68018C010E94DE11F801208131814A
:1013F000C70182239323BB2021F4892B09F05AC013
:1014000004C08E159F0509F455C0C114D10459F4C8
:10141000E9011BC0C7018095909582239323F801B1
:10142000918380834AC0AA2019F060E071E002C075
:1014300060E070E0B11074606E297F29C8010296E7
:10144000A6010E94B014C0E0D0E00E94F114CD28A3
:1014500029F1882311F40E94200D0E94891291FD28
:101460001BC00FB6F8940F92F8018081918197010B
:1014700028233923BB2019F4232B19F50BC02E1573
:101480003F0541F41EC0E094F094E822F922F801EF
:10149000F182E0820F900FBEEC01D070CE01DF919F
:1014A000CF911F910F91FF90EF90DF90CF90BF9061
:1014B000AF900895AA2009F0ADCFE901CC24DD2436
:1014C000C4CFAA2001F7E6CF8F929F92AF92BF922E
:1014D000CF92DF92EF92FF920F931F93CF93DF9300
:1014E000F82EE92E8B015A014901C82ED92E0E94EF
:1014F000DE11F601C081D1818F2D9E2DB8010E9491
:101500008809C02BD12BC5018C239D238A159B05EF
:1015100069F4950120953095F601808191818223AF
:101520009323918380838824992410C0811491048B
:1015300051F0B5017560C6010296A4010E94B01475
:10154000C0E0D0E003C0F601C081D1810E94F11457
:101550008928F9F0882311F40E94200D0E94891235
:101560009C0191FD14C00FB6F8940F92F6012081F2
:101570003181C501822393238A159B0531F4A09400
:10158000B094A222B322B182A0820F900FBEE901D3
:10159000D070CE01DF91CF911F910F91FF90EF900E
:1015A000DF90CF90BF90AF909F908F900895CF9392
:1015B000DF938BE090E00E94FA0AEC01009731F093
:1015C000FC0111921192CF010E94B30BCE01DF9169
:1015D000CF91089508951092090310920803089579
:1015E0002DE734E08091080390910903281B390B03
:1015F000C9010895CF93DF93EC010E94DE11809121
:101600000A0390910B03892B31F48DE093E09093C2
:101610000B0380930A032091080330910903CE0144
:10162000820F931F44E08D37940770F42817390711
:1016300058F4C0910A03D0910B03C20FD31F9093AB
:1016400009038093080302C0C0E0D0E00E94F114B7
:10165000CE01DF91CF9108959F92AF92BF92CF922A
:10166000DF92EF92FF920F931F93DF93CF9300D0FF
:1016700000D0CDB7DEB78C01EE24FF249BE7A92E66
:10168000B12CC12CD12C9924939403C081E0E82E75
:10169000F12CA982BA82CB82DC8289819A81AB81CA
:1016A000BC81895B9B46AC4FBF4F89839A83AB83D8
:1016B000BC8369817A818B819C812DEF3FEF4FEF55
:1016C0005FEF0E94C81F69837A838B839C83698143
:1016D0007A818B819C8127E030E040E050E00E94DD
:1016E0001D20C901DA0189839A83AB83BC83898178
:1016F0009A81AB81BC818B519747AE4FBF4F31F67A
:10170000E114F10409F0C2CF0FB6F8940F92F8017A
:1017100090820F900FBEBDCF80918A0710928A07EA
:10172000811181E00895AF92BF92CF92DF92EF9244
:10173000FF920F93082F8CE29BE060E770E045E595
:1017400050E02AE837E0EE24FF24CC24DD24AA244C
:10175000BB240E94E7160F91FF90EF90DF90CF908F
:10176000BF90AF900895FC019C012D5F3F4F3283E5
:1017700021838FEF9FEF9483838336832583308784
:10178000278310820895FC01118610860895AC010C
:10179000FC01A181B281FB01B383A28314968D91D8
:1017A0009C911597958384831496ED91FC911597E0
:1017B0007383628315967C936E931497FB01518714
:1017C0004087FA0180818F5F80830895CF93DF93F4
:1017D0009C01EB01488159818FEF4F3F580721F45D
:1017E000F901A781B0850DC0D90113961296ED912C
:1017F000FC911397808191814817590710F0DF0100
:10180000F5CF1296ED91FC911397FB83EA83D58374
:10181000C483BD83AC831396DC93CE931297398730
:101820002887F90180818F5F8083DF91CF910895B0
:10183000CF93DF93DC011896CD91DC911997129626
:101840004D915C91139714968D919C911597FA0187
:101850009583848314962D913C911597F9015383B8
:10186000428389819A818A179B0711F43A832983DD
:1018700019961C921E921897888181508883DF9157
:10188000CF910895FC0191E1908322E2229383E3BA
:10189000829362937293129280E88293129282E012
:1018A000829383E0829384E0829385E0829386E052
:1018B000829387E0829388E0829389E0829380E13B
:1018C0008293929382E1829383E1829384E1829373
:1018D00085E1829386E1829387E1829388E1829316
:1018E00089E1829380E2829381E28293229383E270
:1018F00082934293529386E2829387E2829388E2B4
:10190000829389E2829380E3829381E38293319789
:10191000CF0108951BBC8CE78ABD8BE08EBD89B7D3
:10192000806189BFA0918B07B0918C07CD91CDBF0D
:10193000DD91DEBFFF91EF91DF91CF91BF91AF912C
:101940009F918F917F916F915F914F913F912F91D7
:101950001F910F91FF90EF90DF90CF90BF90AF90CD
:101960009F908F907F906F905F904F903F902F90BF
:101970001F900F900FBE0F90089581E00895089575
:101980000F920FB6F8940F921F9211242F923F924C
:101990004F925F926F927F928F929F92AF92BF927F
:1019A000CF92DF92EF92FF920F931F932F933F936B
:1019B0004F935F936F937F938F939F93AF93BF9357
:1019C000CF93DF93EF93FF93A0918B07B0918C0798
:1019D0000DB60D920EB60D920E94AF13882311F032
:1019E0000E94F811A0918B07B0918C07CD91CDBFCB
:1019F000DD91DEBFFF91EF91DF91CF91BF91AF916C
:101A00009F918F917F916F915F914F913F912F9116
:101A10001F910F91FF90EF90DF90CF90BF90AF900C
:101A20009F908F907F906F905F904F903F902F90FE
:101A30001F900F900FBE0F9008950E94C00C189534
:101A40000F920FB6F8940F921F9211242F923F928B
:101A50004F925F926F927F928F929F92AF92BF92BE
:101A6000CF92DF92EF92FF920F931F932F933F93AA
:101A70004F935F936F937F938F939F93AF93BF9396
:101A8000CF93DF93EF93FF93A0918B07B0918C07D7
:101A90000DB60D920EB60D920E94F811A0918B0713
:101AA000B0918C07CD91CDBFDD91DEBFFF91EF915D
:101AB000DF91CF91BF91AF919F918F917F916F9166
:101AC0005F914F913F912F911F910F91FF90EF9058
:101AD000DF90CF90BF90AF909F908F907F906F904E
:101AE0005F904F903F902F901F900F900FBE0F90E0
:101AF00008950FB6F8940F92FC01828D0F900FBEDF
:101B00000895FC010FB6F8940F92928D0F900FBEBE
:101B1000838D891B0895FC01828D0895FC01828DBF
:101B200090E0882309F491E0892F0895FC01928DBB
:101B300020E0838D981709F421E0822F0895FC019D
:101B4000562FA72F248D2223B9F086819781820FEB
:101B5000911D97838683228133818217930720F01A
:101B60008081918197838683448D66817781852FDB
:101B70009A2F50E00E946F2008950F931F93CF93E8
:101B8000DF93EC018A8D882341F00E811F81CE0105
:101B90000E949F0D1F830E8381E0DF91CF911F91E3
:101BA0000F9108950F931F93CF93DF93FB018A0149
:101BB000EC018A8D882361F18C8D2E813F81280F65
:101BC000311D3F832E838A819B812817390720F09E
:101BD000888199819F838E838A8D81508A8F4C8DD5
:101BE0006E817F81CF0150E00E946F20F8018081DB
:101BF000882369F48885882351F0CE0108960E94D5
:101C00009A07882321F081E0F801808301C081E0F8
:101C1000DF91CF911F910F9108951F93CF93DF9381
:101C2000EC01142F4C8D442369F488819981892B10
:101C300009F044C08A819B810E94B412982F1B82B4
:101C40001A823DC01123B1F48C819D8150E00E9425
:101C50006F208C8D2C813D81280F311D3D832C837D
:101C60008A819B812817390748F1888199819D8352
:101C70008C8324C08E819F8150E00E946F208C8DC8
:101C800090E044275527481B590B8E819F81840F74
:101C9000951F9F838E83288139818217930730F4A3
:101CA0008A819B81840F951F9F838E83123031F42C
:101CB0008A8D882319F08A8D81508A8F90E08A8DD1
:101CC0008F5F8A8F892FDF91CF911F9108951F9386
:101CD000CF93DF93142FEC019A8D8B8D981788F496
:101CE000CE0140E00E940D0E112359F4898988230A
:101CF00041F0CE0141960E949A07482F811141E0A0
:101D0000142F812FDF91CF911F910895CF93DF93EF
:101D1000FB01EC01F8948A8D882371F4411551057B
:101D200041F06196CA01BE010E94A20878948CEF2E
:101D30002FC0789480E02CC07894F8948A8D882302
:101D400031F18C8D2E813F81280F311D3F832E83F1
:101D50008A819B812817390720F0888199819F8388
:101D60008E838A8D81508A8F4C8D6E817F81CF01C9
:101D700050E00E946F208885882341F0CE010896AC
:101D80000E949A07882311F08BEF01C081E07894BC
:101D9000DF91CF910895CF93DF93EC01F8940FB6C4
:101DA000F8940F928A8D9B8D0F900FBE891771F456
:101DB0004115510541F02896CA01BE010E94A208B2
:101DC00078948CEF1BC0789480E018C07894F894D5
:101DD0008A8D891710F080E010C0CE0140E00E948B
:101DE0000D0E8989882341F0CE0141960E949A0701
:101DF000882311F08BEF01C081E07894DF91CF91BF
:101E00000895CF93DF93EC0188819981009711F0B9
:101E10000E94EA0ACE010E94EA0ADF91CF9108955A
:101E20000F931F93CF93DF938A01EC018A8D882350
:101E3000E9F0CE010E949F0D8A8D81508A8F8D8D91
:101E40008F3F81F48885882381F0CE0108960E9417
:101E50006F13882351F00115110539F081E0F80165
:101E6000808304C08D8D8F5F8D8F81E0DF91CF9156
:101E70001F910F9108950F931F93CF93DF938A01C2
:101E8000EC019A8D8B8D981720F0223011F080E0B4
:101E900023C0CE01422F0E940D0E882331F0011580
:101EA000110519F081E0F80180838E8D8F3F81F458
:101EB0008989882381F0CE0141960E946F1388237F
:101EC00051F00115110539F081E0F801808304C05B
:101ED0008E8D8F5F8E8F81E0DF91CF911F910F915B
:101EE00008950F931F93CF93DF93EC010FB6F894EF
:101EF0000F928C010F5E1F4F0DC08989882369F0F6
:101F0000C8010E946F13882311F00E947F128E8DEA
:101F100081508E8F8E8D181684F38FEF8E8F0F90D9
:101F20000FBE0FB6F8940F928E01085F1F4F0DC0C1
:101F30008885882369F0C8010E946F13882311F0F7
:101F40000E947F128D8D81508D8F8D8D181684F398
:101F50008FEF8D8F0F900FBEDF91CF911F910F915B
:101F600008957F928F929F92AF92BF92CF92DF920D
:101F7000EF92FF920F931F93DF93CF9300D000D087
:101F80000F92CDB7DEB75B015D834C83722E8C015F
:101F900091E1C92ED12CC00ED11E20E07E01089403
:101FA000E11CF11C84E0882E912C8C0E9D1E01C03A
:101FB00021E00FB6F8940F92F801828D882389F101
:101FC000E680F780C801B5010E949F0D7720C1F41B
:101FD000F801828D8150828F80819181892B29F433
:101FE0000E94A112F80193838283F80180858823DF
:101FF000A1F0C80108960E946F13813071F40BC0E4
:10200000F801F782E6828189882339F0C6010E94AF
:102010006F13882311F00E94200D0F900FBE81E0F6
:1020200059C08C819D81892B19F40F900FBE51C02E
:10203000222319F4C7010E9441120F900FBE0E9483
:10204000DE110FB6F8940F92F801858D8F3F09F4D9
:10205000158EF801868D8F3F09F4168E0F900FBEF6
:10206000C701B4010E944C12882371F50FB6F89491
:102070000F92F801828D0F900FBE8823F9F4F801BA
:1020800080819181892B51F40FB6F8940F92F80159
:10209000828193810E94E9120F900FBE6C817D8135
:1020A000C6010E94D414C8010E94710F0E94F1144D
:1020B000882309F07DCF0E94200D7ACFC8010E94AD
:1020C000710F0E94F11474CFC8010E94710F0E9419
:1020D000F11480E00F900F900F900F900F90CF9120
:1020E000DF911F910F91FF90EF90DF90CF90BF9005
:1020F000AF909F908F907F9008956F927F929F9264
:10210000AF92BF92CF92DF92EF92FF920F931F9305
:10211000DF93CF9300D000D00F92CDB7DEB76B0125
:102120005D834C83922E8C0148E0E42EF12CE80E66
:10213000F91E20E05E010894A11CB11C34E0632E5E
:10214000712C6C0E7D1E01C021E00FB6F8940F9229
:10215000F801928D838D981718F0F2E09F16C9F45C
:10216000C801B601492D0E940D0E982FF8018189F2
:10217000882339F0C80141960E946F13813029F4F9
:1021800002C0992311F00E94200D0F900FBE81E034
:102190004CC08C819D81892B19F40F900FBE44C0D7
:1021A000222319F4C5010E9441120F900FBE0E9414
:1021B000DE110FB6F8940F92F801858D8F3F09F468
:1021C000158EF801868D8F3F09F4168E0F900FBE85
:1021D000C501B3010E944C12882309F50FB6F8948B
:1021E0000F92F801928D0F900FBEF801838D981712
:1021F00081F46C817D81C7010E94D414C8010E94C2
:10220000710F0E94F114882309F09ECF0E94200DC7
:102210009BCFC8010E94710F0E94F11495CFC80195
:102220000E94710F0E94F11480E00F900F900F90A8
:102230000F900F90CF91DF911F910F91FF90EF9032
:10224000DF90CF90BF90AF909F907F906F90089558
:10225000CF93DF938FE190E00E94FA0AEC010097A0
:10226000F9F01B821A82198218821D821C821F8239
:102270001E821A8E81E08B8F1C8E8FEF8D8F8E8F3A
:10228000CE0108960E94B30BCE0141960E94B30B7B
:10229000CE0160E070E040E050E020E00E947D1060
:1022A000CE01DF91CF910895CF93DF93EC010FB66C
:1022B000F8940F92EC8D2B8DE29FC0011124488180
:1022C0005981840F951F9B838A831A8E5D834C836B
:1022D00030E021503040F0E02E9FC0012F9F900D44
:1022E0003E9F900D1124480F591F5F834E838FEF3F
:1022F0008D8F8E8F662361F48885882389F0CE01C7
:1023000008960E946F13813059F40E94200D08C076
:10231000CE0108960E94B30BCE0141960E94B30BEA
:102320000F900FBE81E0DF91CF9108950F931F931F
:10233000CF93DF93182F062F8823E1F08FE190E0F1
:102340000E94FA0AEC010097A9F0019FC001112434
:1023500001960E94FA0A99838883009741F01B8FA7
:102360000C8FCE0161E00E9454119E0105C0CE0188
:102370000E94EA0A20E030E0C901DF91CF911F916D
:102380000F9108951F93162F60E042E00E9496116E
:10239000FC01009709F0128FCF011F9108950FB62D
:1023A000F8940F92009729F4E0918B07F0918C0735
:1023B00001C0FC010F900FBE86890895809192079D
:1023C0008F5F8093920708950FB6F8940F92209133
:1023D0008F07309190070F900FBEC901089520918B
:1023E0008F0730919007C90108958091940708954F
:1023F00080919207882321F081E080938E070895D1
:1024000010928E0705C080918D07815080938D07B3
:1024100080918D0790E0FC0123E0EE0FFF1F2A95CD
:10242000E1F7E80FF91FE856F84F8081882359F348
:1024300090918D0789E0989FD0011124A856B84F3C
:102440001196ED91FC9112970280F381E02D129686
:10245000FC93EE931197CD010396E817F90731F439
:102460008281938112969C938E9311971196ED9190
:10247000FC9112978681978190938C0780938B07AC
:102480000895FC0180919107808380918F0790913E
:102490009007928381830895FC01DB010FB6F894C5
:1024A0000F9240918F0750919007909191078081F2
:1024B000981729F08181928148175907E0F421810A
:1024C00032816D917C911197CA01821B930B861703
:1024D000970788F4241B350B260F371F2D933C9349
:1024E00080919107808380918F07909190079283CC
:1024F000818380E001C081E00F900FBE089581E0EC
:1025000080938E07089520918B0730918C07C90125
:102510000895E0918B07F0918C0784859585A091B3
:102520008B07B0918C07E0918B07F0918C0746895F
:1025300024E030E0241B31091D963C932E931C9718
:10254000089580918B0790918C07892B39F0E09149
:102550008B07F0918C0786A58F5F86A720918B074C
:1025600030918C07C90108950F931F93CF93DF9388
:10257000EC01009741F12EA521502EA79E898DA533
:10258000981709F12223F9F48E010E5F1F4FC8013D
:102590000E94180C2DA52E8B84E090E0821B9109DF
:1025A0009D878C8780918D07821710F420938D076B
:1025B00089E0289FC00111248856984FB8010E94D5
:1025C000C70B81E001C080E0DF91CF911F910F9197
:1025D00008950F931F93CF93DF93EC01009709F4B5
:1025E00045C0E0918B07F0918C079E8986899817EA
:1025F000E8F58C859D8597FD0BC0E0918B07F091E8
:102600008C07268984E090E0821B91099D878C8746
:102610008E8929E0829FC00111248856984F2A850F
:102620003B8528173907E1F48E010E5F1F4FC80163
:102630000E94180CE0918B07F0918C0796899E8B75
:1026400080918D07891710F490938D0789E0989FEA
:10265000C00111248856984FB8010E94C70B06C0CC
:10266000E0918B07F0918C0786898E8BDF91CF915B
:102670001F910F9108950F931F93CF93DF93FC0148
:10268000706871836083C681D7810E94180C8E01A7
:102690000E5F1F4FC8010E94180C9E8980918D0704
:1026A000891710F490938D0789E0989FC001112439
:1026B0008856984FB8010E94C70BE0918B07F091A4
:1026C0008C079E898689891710F080E003C081E01D
:1026D00080938E07DF91CF911F910F9108950F93F3
:1026E0001F93CF93DF93DC011596ED91FC91169724
:1026F000C681D7818E01045F1F4FC8010E94180C4C
:10270000809192078823A1F48E010E5F1F4FC801AC
:102710000E94180C9E8980918D07891710F4909360
:102720008D0789E0989FC00111248856984F02C0F8
:1027300082ED97E0B8010E94C70BE0918B07F09102
:102740008C079E898689891710F080E003C081E09C
:1027500080938E07DF91CF911F910F910895CF92B3
:10276000DF92EF92FF920F931F93CF93DF938091AD
:102770009207882309F0A7C080918F079091900756
:1027800001969093900780938F07E0908F07F090C9
:102790009007E114F10479F52091CE073091CF072D
:1027A0008091D0079091D1079093CF078093CE0767
:1027B0003093D1072093D007809191078F5F80934A
:1027C0009107E091CE07F091CF078081882319F41B
:1027D0008FEF9FEF0CC0E091CE07F091CF070580FF
:1027E000F681E02D0680F781E02D82819381909320
:1027F000AD028093AC028091AC029091AD02E816DC
:10280000F90608F449C0DD2449E0C42EE091CE0762
:10281000F091CF078081882319F48FEF9FEF0EC0CE
:10282000E091CE07F091CF070580F681E02DC681BB
:10283000D7818A819B81E816F90628F49093AD022E
:102840008093AC022AC08E010E5F1F4FC8010E9408
:10285000180C8C899D89892B21F0CE010C960E9441
:10286000180C9E8980918D07891710F490938D071D
:102870009C9DC00111248856984FB8010E94C70B37
:10288000E0918B07F0918C079E898689981708F450
:10289000BDCFDD24D394BACFDD24E0918B07F09136
:1028A0008C07868990E0FC0133E0EE0FFF1F3A951C
:1028B000E1F7E80FF91FE856F84F8081823048F0C1
:1028C000DD24D39406C0809193078F5F8093930794
:1028D000DD2480918E07882311F0DD24D3948D2D83
:1028E000DF91CF911F910F91FF90EF90DF90CF90EC
:1028F0000895CF93DF93EC01E0918B07F0918C0763
:102900009383828380918F0790919007C817D9078E
:1029100068F48091D0079091D10760918B077091F6
:102920008C076E5F7F4F0E94E60B17C08091CE0729
:102930009091CF0760918B0770918C076E5F7F4FEE
:102940000E94E60B8091AC029091AD02C817D907A6
:1029500020F4D093AD02C093AC02DF91CF910895E3
:102960000F931F938A01E0918B07F0918C07706899
:102970007587648760918B0770918C07645F7F4FC8
:102980000E94C70B80918B0790918C0702960E9442
:10299000180C80918F0790919007800F911F0E94D3
:1029A00079141F910F9108950F931F938B016091DC
:1029B0008B0770918C07645F7F4F0E94E60B8091BC
:1029C0008B0790918C0702960E94180C80918F07BC
:1029D00090919007800F911F0E9479141F910F9181
:1029E0000895EF92FF920F931F93CF93DF930FB64B
:1029F000F8940F9280919207815080939207809172
:102A00009207882309F055C080919407882359F5CF
:102A100050C0E091D707F091D807C681D781CE0189
:102A20000C960E94180C8E010E5F1F4FC8010E9469
:102A3000180C9E8980918D07891710F490938D074B
:102A40009E9DC00111248856984FB8010E94C70B63
:102A5000E0918B07F0918C079E898689981738F052
:102A6000F0928E0704C059E0E52EFF24F394809184
:102A7000D207882371F680919307882369F411C0E7
:102A80000E94AF13882311F010938E078091930753
:102A900081508093930701C011E0809193078823B0
:102AA00079F780918E07813021F40E94200D81E01A
:102AB00001C080E00F900FBEDF91CF911F910F9169
:102AC000FF90EF900895EF92FF920F931F93DF9383
:102AD000CF930F92CDB7DEB7643008F063E00FB646
:102AE000F8940F92009729F4E0908B07F0908C07F0
:102AF00001C07C01D7019D962C91261709F45EC078
:102B00002617A0F480918B0790918C07E816F906A0
:102B100011F4198215C0E0918B07F0918C0719828E
:102B20008689681768F0B1E0B9830AC080918B0785
:102B300090918C071982E816F90611F4E1E0E98317
:102B4000D70156963C915697231711F456966C93DD
:102B5000F70165A78485958597FD06C084E090E020
:102B6000861B91099587848789E0389FC0011124CD
:102B70008856984FD7011A962D913C911B9728178C
:102B80003907B9F487010E5F1F4FC8010E94180C66
:102B9000F701968980918D07891710F490938D071E
:102BA00089E0989FC00111248856984FB8010E946F
:102BB000C70BF981F13011F40E94200D0F900FBE68
:102BC0000F90CF91DF911F910F91FF90EF9008959B
:102BD0000F931F93CF93DF93EC010097C9F080917F
:102BE00092078F5F8093920700918F071091900753
:102BF00080918B0790918C0702960E94180CCE0151
:102C0000800F911F0E9479140E94F114882311F4FF
:102C10000E94200DDF91CF911F910F910895CF93C6
:102C2000DF93FC01EB01809192078F5F8093920705
:102C300020918F073091900780819181C80FD91F13
:102C40002817390728F4C817D90728F080E008C0EA
:102C5000C817D90720F080E02C173D0708F481E061
:102C6000D183C083882351F080918B0790918C078A
:102C700002960E94180CCE010E9479140E94F11451
:102C8000882311F40E94200DDF91CF9108950F93B6
:102C90001F93CF93DF930FB6F8940F92009729F408
:102CA000C0918B07D0918C0701C0EC018E010E5FA3
:102CB0001F4FC8010E94180C8C899D89892B21F017
:102CC000CE010C960E94180C8BED97E0B8010E9483
:102CD000C70B809196078F5F809396078091970727
:102CE0008F5F809397070F900FBE80919507882381
:102CF00049F180918B0790918C07C817D90719F477
:102D00000E94200D1FC00FB6F8940F92E091CE07DD
:102D1000F091CF078081882319F48FEF9FEF0CC0CB
:102D2000E091CE07F091CF070580F681E02D068077
:102D3000F781E02D828193819093AD028093AC0264
:102D40000F900FBEDF91CF911F910F910895F894CE
:102D5000109295070E94BF0C08950F931F932CC0EB
:102D6000809192078F5F809392071091DB070E94FA
:102D7000F114112309F10FB6F8940F92E091E007D6
:102D8000F091E10706811781C80102960E94180C94
:102D90008091940781508093940780919607815089
:102DA000809396070F900FBEF8018789908D0E943F
:102DB000EA0AC8010E94EA0A80919607882381F6F0
:102DC000809198078230C0F30E94200DF5CF2F929A
:102DD0003F924F925F927F928F929F92AF92BF925B
:102DE000CF92DF92EF92FF920F931F93CF93DF93D7
:102DF0001C01962E872E5A012901702E8FE290E039
:102E00000E94FA0AEC01009781F0C114D10421F468
:102E1000C5010E94FA0A6C01D88ECF8AC114D10470
:102E200009F0CBC0CE010E94EA0A8FEFB4C08081C6
:102E300059968C9359978081882329F09F5F31960A
:102E400011969431A1F71CA6072D83E0871508F48D
:102E500003E00E8B0DA71EA672E0872E912C8C0E20
:102E60009D1EC4010E94C30BCE010C960E94C30B91
:102E7000D987C88784E090E0801B91099D878C8763
:102E8000DB8BCA8B0894A108B108C6018A0D9B1D73
:102E9000B101A2010E94420C99838883E114F104DC
:102EA00019F0F701D183C0830FB6F8940F92809187
:102EB00094078F5F8093940780918B0790918C0784
:102EC000892BA9F5D0938C07C0938B078091940729
:102ED0008130E1F588E997E00E94B30B81EA97E041
:102EE0000E94B30B8AEA97E00E94B30B83EB97E052
:102EF0000E94B30B6CEBE62E67E0F62EC7010E9432
:102F0000B30B05EC17E0C8010E94B30B82ED97E00C
:102F10000E94B30B8BED97E00E94B30BF092CF07AA
:102F2000E092CE071093D1070093D0070FC0809195
:102F30009507882359F4E0918B07F0918C078689D7
:102F4000781620F0D0938C07C0938B078091970759
:102F50008F5F809397079E8980918D07891710F462
:102F600090938D0789E0989FC00111248856984F4F
:102F7000B4010E94C70B0F900FBE80919507882364
:102F800049F0E0918B07F0918C078689871510F442
:102F90000E94200D81E0DF91CF911F910F91FF9052
:102FA000EF90DF90CF90BF90AF909F908F907F90E9
:102FB0005F904F903F902F900895892D982D9C0100
:102FC000F901DE0190E033CFAF92BF92CF92DF9252
:102FD000EF92FF920F938DEA96E168E770E045E586
:102FE00050E020E030E000E0EE24FF24CC24DD249B
:102FF000AA24BB240E94E716813049F4F8948093F8
:1030000095071092900710928F070E948A0C0F91DB
:10301000FF90EF90DF90CF90BF90AF90089587B171
:103020008F73806487B986B1876086B9379A0895AF
:103030008F7197B1907E982B97B9369A3699FECFBB
:1030400024B135B1C90108959AB321E030E002C03E
:10305000220F331F8A95E2F7922B9ABB8BB32095F0
:1030600028232BBB08959BB321E030E002C0220F40
:10307000331F8A95E2F7922B9BBB08959BB321E007
:1030800030E002C0220F331F8A95E2F720952923F2
:103090002BBB08959BB321E030E002C0220F331F09
:1030A0008A95E2F792279BBB08959AB3982B9ABB17
:1030B0009BB3809598239BBB08959BB3982B9BBB98
:1030C00008959BB3809598239BBB08959BB3982745
:1030D0009BBB08958AB38FEF8ABB8BB31BBA08954D
:1030E0008BB38FEF8BBB08958BB31BBA08958BB353
:1030F00080958BBB089591B321E030E002C0220F90
:10310000331F8A95E2F7822F8095892381BB82B392
:10311000282B22BB089520B330E002C035952795B7
:103120008A95E2F72095822F817008958F9A97985B
:103130000895979A08959798089582B3805882BB0E
:103140000895863029F0873081F0853071F51CC0F4
:1031500085B78C7F85BF85B7862B85BF5093F207D7
:103160004093F1078BB780641FC085B7837F85BF0D
:1031700085B7660F660F862B85BF5093F407409383
:10318000F3078BB7806810C0633019F484B780648C
:1031900004C0623059F484B78F7B84BF5093F60724
:1031A0004093F5078BB780628BBF789408951F9288
:1031B0000F920FB60F9211242F933F934F935F936B
:1031C0006F937F938F939F93AF93BF93EF93FF93EF
:1031D000E091F107F091F2070995FF91EF91BF910E
:1031E000AF919F918F917F916F915F914F913F919F
:1031F0002F910F900FBE0F901F9018951F920F9256
:103200000FB60F9211242F933F934F935F936F93B9
:103210007F938F939F93AF93BF93EF93FF93E0912F
:10322000F307F091F4070995FF91EF91BF91AF91EA
:103230009F918F917F916F915F914F913F912F91CE
:103240000F900FBE0F901F9018951F920F920FB600
:103250000F9211242F933F934F935F936F937F931C
:103260008F939F93AF93BF93EF93FF93E091F507F5
:10327000F091F6070995FF91EF91BF91AF919F9162
:103280008F917F916F915F914F913F912F910F900F
:103290000FBE0F901F901895C198282F207F95B3CF
:1032A0009F70922B95BBC09AC0988295807F95B3F2
:1032B0009F70982B95BBC09AC0988AE68A95F1F7C3
:1032C000089581E00E944C1980E197E20197F1F79F
:1032D000089584B3806F84BBB99AB89A88EE93E05E
:1032E00028EC30E0F9013197F1F70197D9F782E046
:1032F0000E944C1988E20E944C198CE00E944C19E3
:1033000086E00E944C190E9461190895C19A282FE5
:10331000207F95B39F70922B95BBC09AC0988295E1
:10332000807F95B39F70982B95BBC09AC0988AE612
:103330008A95F1F708951F93CF93DF93EC0110E086
:1033400003C00E9486191F5FFE01E10FF11D8081FD
:103350008823B9F7DF91CF911F9108950E948619B4
:103360000895813019F4862F815802C0862F815428
:103370000E944C1908950F931F938A010E94B1195E
:10338000C8010E949B191F910F9108951F93142F3C
:103390000E94B119812F0E9486191F9108950F93E1
:1033A0001F93DF93CF93CDB7DEB72B970FB6F8946B
:1033B000DEBF0FBECDBFDC01CB018E010F5F1F4F03
:1033C0002BE0F80111922A95E9F7B8014AE050E0A4
:1033D0000E947820C8010E949B192B960FB6F89482
:1033E000DEBF0FBECDBFCF91DF911F910F9108952A
:1033F000EF92FF920F931F9379018A010E94B119F6
:10340000C801B7010E94CF191F910F91FF90EF9053
:103410000895882341F0813059F487B3806B87BBCE
:10342000BE986C9A05C087B38F7487BBBE9A6C98A0
:103430006E9A08958FB9779BFECF8FB108959B0147
:10344000AC0160E072E18AE790E00E94FB1F20512E
:10345000304040405040569547953795279520B9C4
:1034600086B7846086BF089584EA86BF06B607FEE5
:10347000FDCF81B190E0887F883009F491E0892FF9
:10348000089584EA86BF06B607FEFDCF81B190E0BD
:10349000887F803109F491E0892F089584E986BFFF
:1034A000089583B984E886BF06B607FEFDCF81B1D3
:1034B00040E090E0887F9070262F30E082179307DD
:1034C00009F441E0842F0895FC0184E886BF81B1AE
:1034D000887F803519F486B7806486BF06B607FEFC
:1034E000FDCF81B190E0887F9070262F30E0821769
:1034F000930711F080E0089583B1808381E00895FF
:1035000084B38F6084BB85B38F6085BB87B38F70B6
:1035100087BB88B3806F88BB0895CF93DF93E0E0CB
:10352000F0E0C1E0D0E0A0EDB7E085B39E010E2E43
:1035300002C0220F331F0A94E2F7922F909598232E
:1035400095BBCD010197F1F740E050E086B3BA0199
:103550006C5F7F4F90E0062E02C0959587950A9488
:10356000E2F780FD17C021E030E002C0220F331FD8
:103570006A95E2F786B390E082239323892BD1F3F7
:10358000EE0FFF1FEE0FFF1FE40FF51FE255FD4F7B
:1035900080810EC04F5F5F4F44305105B9F685B34F
:1035A000282B25BB3196E430F10509F0BECF80E031
:1035B000DF91CF9108958FEF87BB94B3906F94BB49
:1035C00088BB85B38F7085BB089545B390E00396A3
:1035D00021E030E002C0220F331F8A95E2F7422B30
:1035E00045BB6E3211F48FE705C0E62FF0E0E254E0
:1035F000FD4F808188BB80ED97E00197F1F785B39F
:103600002095282325BB0895982F83B7887F83BFF3
:10361000913099F0913030F09230D9F0933009F038
:1036200043C02DC083B78F7B83BF83B7877F83BFA2
:1036300089B7816089BF7894089583B78F7B83BFF2
:1036400083B7886083BF83B7806183BF83B78F7D73
:103650000BC083B7806483BF83B7877F83BF83B783
:103660008F7E83BF83B7806283BFBB9A8FE78CBF97
:1036700083B78A7F83BF83B7826083BF089583B790
:10368000806483BF83B7886083BF83B78F7E83BF27
:1036900083B7806283BFBB9A8FE78CBF83B78A7F73
:1036A00083BF83B7826083BF089583B78A7F83BF58
:1036B00083B7826083BF089583B7887F83BF0895EF
:1036C0001092E4071092E5071092E6071092E707C0
:1036D00012BE0895AB01BC0183B7887F83BF1092EF
:1036E000E4071092E5071092E6071092E70712BE72
:1036F00083B78A7F83BF83B7826083BF8091E407EB
:103700009091E507A091E607B091E70722B7BA2F9D
:10371000A92F982F8827820F911DA11DB11D0196F9
:10372000A11DB11D84179507A607B70738F30895A3
:1037300023B7287F23BF1092E4071092E507109269
:10374000E6071092E70712BE23B72A7F23BF23B7ED
:10375000226023BF28EE33E040E050E00E94C81F03
:10376000AB01BC018091E4079091E507A091E607C9
:10377000B091E70722B7BA2FA92F982F8827820F79
:10378000911DA11DB11D0196A11DB11D84179507A5
:10379000A607B70738F30895843618F08FEF8CBF6B
:1037A0000895682F70E080E090E02FEF30E040E077
:1037B00050E00E94C81F24E630E040E050E00E9444
:1037C000FB1F2CBF0895AF92BF92CF92DF92EF9272
:1037D000FF920F931F93ECB690E0AA2797FDA09558
:1037E000BA2FBC01CD010E94250420E030E048EC56
:1037F00052E40E9419035B016C01FF240027F7FCCF
:103800000095102FC801B7010E9425047B018C018F
:10381000C601B50120E030E04FE753E40E941F02EB
:103820009B01AC01C801B7010E94C5038823E4F0E5
:103830006CB770E0882777FD8095982F0E9425044B
:103840007B018C01C601B50120E030E04FE753EC6D
:103850000E941F029B01AC01C801B7010E94F20146
:103860000E9449006CBF01C01CBE1F910F91FF90C8
:10387000EF90DF90CF90BF90AF900895AF92BF923E
:10388000CF92DF92EF92FF920F931F93ECB690E0EE
:10389000AA2797FDA095BA2FBC01CD010E9425044F
:1038A00020E030E048EC52E40E94190320E030E0D0
:1038B0004FE753E40E941F025B016C01FF240027C5
:1038C000F7FC0095102FC801B7010E942504A6013E
:1038D00095010E94F20120E030E04FE753E40E949E
:1038E000F503181684F06CB770E0882777FD809593
:1038F000982F0E942504A60195010E94F2010E94C2
:1039000049006CBF02C08FEF8CBF1F910F91FF90D9
:10391000EF90DF90CF90BF90AF900895CF92DF925D
:10392000EF92FF920F931F936C017A018B0180E05D
:103930000E94041BD092F807C092F7071092E40788
:103940001092E5071092E6071092E707C801B70149
:1039500028EE33E040E050E00E94C81F672F782F28
:10396000892F99276093E8077093E9078093EA0706
:103970009093EB0783B78A7F83BF83B7826083BF4F
:103980001F910F91FF90EF90DF90CF9008951F92BD
:103990000F920FB60F9211242F933F934F935F9383
:1039A0006F937F938F939F93AF93BF93EF93FF9307
:1039B0008091E4079091E507A091E607B091E707B1
:1039C0000196A11DB11D8093E4079093E507A09394
:1039D000E607B093E7072091E4073091E5074091AF
:1039E000E6075091E7078091E8079091E907A091D9
:1039F000EA07B091EB07281739074A075B0741F43C
:103A0000E091F707F091F807099583B7887F83BFA6
:103A1000FF91EF91BF91AF919F918F917F916F91A6
:103A20005F914F913F912F910F900FBE0F901F907C
:103A300018959B01AC0194E0220F331F441F551FC2
:103A40009A95D1F760E072E18AE790E00E94FB1F4F
:103A5000215030404040504080B58F7780BDBB271B
:103A6000A52F942F832F80BD29B988E18AB986E8D4
:103A700080BD08955D9BFECF8CB90895FC015F9BCE
:103A8000FECF8CB180830895FC015F9902C080E075
:103A900008958CB1808381E00895FC0180E090E07E
:103AA000A0E0B0E003C00196A11DB11D5F9909C05F
:103AB0008B3A20EB920728E2A20720E0B20799F7A1
:103AC00009C08B5A904BA842B04020F48CB180833F
:103AD00081E0089580E00895FC0104C05D9BFECF65
:103AE0008CB9319680818823C9F708951F920F926F
:103AF0000FB60F9211242F933F934F935F936F93C1
:103B00007F938F939F93AF93BF93EF93FF934CB1AA
:103B100082E090E065E070E050E00E94C619FF91FD
:103B2000EF91BF91AF919F918F917F916F915F9135
:103B30004F913F912F910F900FBE0F901F901895AE
:103B40000F931F938091EC079091ED0760E170E077
:103B500041E020E00FEF1FEF0E94E4098093EE07A1
:103B60009093EF0784FF02C00E94991888EE93E0BB
:103B70000E94E8150E949B18E5CF1F93CF93DF9317
:103B800010E0C4EFD1E080E00E9418189C012C9F47
:103B9000C0012D9F900D3C9F900D11246FEF73E09D
:103BA0000E94E71F6093F0078091EC079091ED076A
:103BB00061E070E00E9488098091F0078D32E0F4A6
:103BC0008E3140F41130F9F0DE9887E00E943E1803
:103BD00011E019C0833240F41230A9F0DE9A87E078
:103BE0000E943E1812E00FC0133069F0DE9887E0A3
:103BF0000E94331813E007C0143029F0DE9A87E0E2
:103C00000E94331814E088EE93E00E94E815BBCFC1
:103C10000F931F938091EC079091ED0761E070E0A6
:103C200041E020E00FEF1FEF0E94E4098093EE07D0
:103C30009093EF0780FFEECF0E94611981E061E071
:103C40004DE750E00E94BB192091F00730E040E0C2
:103C500050E081E06EE00E94F819DCCFCF92DF9255
:103C6000EF92FF921F93DF93CF93CDB7DEB7A0976C
:103C70000FB6F894DEBF0FBECDBF19829E012A5E3B
:103C80003F4F8BE0D9011D928A95E9F781E392E3DA
:103C9000A3E3B0E08A839B83AC83BD83FE013696A9
:103CA00086E0DF011D928A95E9F7FE013C968AE0E5
:103CB000DF011D928A95E9F77E010894E11CF11C51
:103CC0006901C7010E94441D813009F0EBC0898160
:103CD0008A3209F0E7C08E8B11E009C0C7010E944B
:103CE0003E1DF601E10FF11D898180831F5F8981EF
:103CF0008D30A1F78F89813409F44EC0893409F0E1
:103D0000CDC08BE890E00E946C1D8EE890E00E9490
:103D10006C1D898D8233C1F0833349F1813309F001
:103D2000BDC08B8D803321F0813309F0B7C006C050
:103D300085EA90E00E946C1D81E042C087EB90E034
:103D40000E946C1D81E025C08B8D803321F0813372
:103D500009F0A4C006C088EC90E00E946C1D82E0CF
:103D60002FC08AED90E00E946C1D82E012C08B8D06
:103D7000803321F0813309F091C006C088EC90E0D7
:103D80000E946C1D83E01CC08BEE90E00E946C1DB5
:103D900083E00E94331882C08BE890E00E946C1D83
:103DA0008CEF90E00E946C1D898D803321F081336F
:103DB00009F074C008C084E191E00E946C1D84E0A9
:103DC0000E943E186BC010E082E291E00E946C1DE0
:103DD000C7010E944D1D882371F089818C87C7011E
:103DE0000E944D1D882339F089818D87C7010E946B
:103DF0004D1D882349F48BE890E00E946C1D83E3FD
:103E000091E00E946C1D4AC029812E879A818C8581
:103E10009817C9F49B818D859817A9F48C81821716
:103E200091F48DE391E00E946C1D82E591E00E9487
:103E30006C1D84E00E943318DD9A84EF91E00E94AB
:103E4000E815DD982BC080E691E00E946C1D87E7A5
:103E500091E00E946C1D812F8F5C0E943A1D8BE8BF
:103E600090E00E946C1D8BE890E00E946C1D1F5F2B
:103E7000133009F0A9CF8FE791E00E946C1D84E117
:103E800091E00E946C1D84E00E943E188091EC0736
:103E90009091ED0760E170E00E9488098BE890E066
:103EA0000E946C1D90E002C010829F5FF601E90F36
:103EB000F11D80818823C1F784E690E00E94E81517
:103EC00000CF0E946A180E9469190E940F1860E8CA
:103ED00075E280E090E00E94191D0895AF92BF92B4
:103EE000CF92DF92EF92FF920F930E94611F81E0C9
:103EF00061E045E951E00E94BB1980E197E228ECBE
:103F000030E0F9013197F1F70197D9F70E94611973
:103F10000E94D70A9093ED078093EC078EE29EE112
:103F200060E070E048EC50E020E030E001E0EE249A
:103F3000FF24CC24DD24AA24BB240E94E71688E0B9
:103F40009EE160E070E044E650E020E030E002E016
:103F50000E94E7168DEB9DE160E070E044E650E0E2
:103F600020E030E003E00E94E71680EA9DE160E097
:103F700070E044E650E020E030E004E00E94E71604
:103F80000E94E417FFCF0E946E1F80E090E008952A
:103F9000629FD001739FF001829FE00DF11D649F2D
:103FA000E00DF11D929FF00D839FF00D749FF00DB9
:103FB000659FF00D9927729FB00DE11DF91F639F5A
:103FC000B00DE11DF91FBD01CF0111240895AA1BF9
:103FD000BB1B51E107C0AA1FBB1FA617B70710F0F4
:103FE000A61BB70B881F991F5A95A9F78095909526
:103FF000BC01CD010895A1E21A2EAA1BBB1BFD0135
:104000000DC0AA1FBB1FEE1FFF1FA217B307E407B7
:10401000F50720F0A21BB30BE40BF50B661F771F0F
:10402000881F991F1A9469F76095709580959095EF
:104030009B01AC01BD01CF01089597FB092E052618
:104040000ED057FD04D0D7DF0AD0001C38F45095AD
:104050004095309521953F4F4F4F5F4F0895F6F7AC
:1040600090958095709561957F4F8F4F9F4F0895E4
:104070002F923F924F925F926F927F928F929F9278
:10408000AF92BF92CF92DF92EF92FF920F931F9366
:10409000CF93DF93CDB7DEB7CA1BDB0B0FB6F89417
:1040A000DEBF0FBECDBF09942A88398848885F8457
:1040B0006E847D848C849B84AA84B984C884DF80C8
:1040C000EE80FD800C811B81AA81B981CE0FD11DAC
:1040D0000FB6F894DEBF0FBECDBFED010895FB0112
:1040E000DC0102C001900D9241505040D8F7089574
:1040F000FB019F01E8944230C4F04532B4F44A30E9
:1041000029F497FB1EF4909581959F4F642F772794
:104110000E94E71F805D8A330CF0895D8193CB019B
:104120000097A1F716F45DE251931082C9010C9437
:104130009920DC01FC01672F71917723E1F7329719
:1041400004C07C916D9370836291AE17BF07C8F372
:064150000895F894FFCF72
:1041560051436F6E734E42005150726F644E42006F
:10416600496E744D6174680049444C450054656D50
:1041760070657261747572653A20000D0A002A2A0C
:104186002A2A20526F6F6D204C69676874202A2A8C
:104196002A2A0D0A00526F6F6D20313A204C454491
:1041A600204F66660D0A00526F6F6D20313A204C23
:1041B6004544204F6E0D0A00526F6F6D20323A2033
:1041C6004C4544204F66660D0A00526F6F6D2032D3
:1041D6003A204C4544204F6E0D0A00526F6F6D20F9
:1041E600333A204C4544204F6E0D0A002A2A2A2ACB
:1041F60020446F6F7220416363657373202A2A2AF5
:104206002A0D0A00446F6F7220436C6F7365640D4C
:104216000A00456E7465722050617373776F72641D
:104226003A200054696D656F75740D0A000D0A43D6
:104236006F72726563742050617373776F72640D69
:104246000A00446F6F72204F70656E65640D0A0038
:104256000D0A496E636F72726563742050617373E1
:10426600776F72640D0A00547269616C3A200052CD
:10427600656163686564204D617820547269616C7C
:1042860073210D0A0053797374656D20537461723E
:1042960074656400000000000000000000010202D6
:1042A60003030303040404040404040405050505C8
:1042B60005050505050505050505050506060606A4
:1042C6000606060606060606060606060606060688
:1042D6000606060606060606060606060707070774
:1042E6000707070707070707070707070707070758
:1042F6000707070707070707070707070707070748
:104306000707070707070707070707070707070737
:104316000707070707070707070707070808080823
:104326000808080808080808080808080808080807
:1043360008080808080808080808080808080808F7
:1043460008080808080808080808080808080808E7
:1043560008080808080808080808080808080808D7
:1043660008080808080808080808080808080808C7
:1043760008080808080808080808080808080808B7
:1043860008080808080808080808080808080808A7
:10439600080808080808080808080808FFFF37384A
:1043A600392F3435362A3132332D63303D2BC0F95F
:0A43B600A4B0999282F880907F0075
:00000001FF
