S00B00005443532E737265632F
S11300000C9442000C949B0A0C94C40A0C94ED0AC0
S11300100C94330C0C946B0C0C94A20C0C94AC0C40
S11300200C94EA0C0C94280D0C94600D0C94980D0F
S11300300C945F000C94020F0C942B0F0C94540F2F
S11300400C9450080C945F000C945F000C94870E81
S11300500C945F00EB06F206F906000707070E078B
S113006015071C072D0734073B07420749075007AC
S113007057075E076F0775077B07810787078D079B
S11300809307990711241FBECFE5D8E0DEBFCDBF8B
S113009011E0A0E6B0E0EEEEF0E202C005900D92B1
S11300A0AC39B107D9F721E0ACE9B1E001C01D9248
S11300B0A03DB207E1F70E94E6070C9475100C947A
S11300C0000061E084E00E94D30661E085E00E94C4
S11300D0D30661E086E00E94D3060E94180440E043
S11300E067E081E00E9485081092A3011092A201AA
S11300F0ECE9F1E0108211821282138208950E94C9
S113010079080E94160B61E670E080E00E94880A7C
S113011062E080E00E94070A0E94ED070E941A0B29
S11301200E94B00E0E94CF0D0E9455050895CF93F2
S1130130DF931F92CDB7DEB78FEF89830E94D60578
S113014080E690E00E94FB056FE082E00E94E005FB
S11301508BE20E947C0504C0CE0101960E947A04C1
S113016089818F3FC9F38B3231F0813341F481E0CF
S11301708093A30113C081E08093A2010FC00E9469
S1130180D60580E790E00E94FB052FEF89E698E111
S1130190215080409040E1F700C000000F90DF91B3
S11301A0CF910895CF93DF931F92CDB7DEB78FEF32
S11301B089830E94D6058DE790E00E94FB0560E0EC
S11301C082E00E94E0058DE20E947C056FE082E0FF
S11301D00E94E0058BE20E947C0504C0CE010196DA
S11301E00E947A0489818F3FC9F38D3249F08233AA
S11301F019F08B3261F407C082E08093A30116C02A
S11302001092A20113C082E08093A2010FC00E9449
S1130210D60580E790E00E94FB052FEF89E698E180
S1130220215080409040E1F700C000000F90DF9122
S1130230CF910895CF93DF931F92CDB7DEB78FEFA1
S113024089830E94D6058EE890E00E94FB0560E059
S113025082E00E94E0058DE20E947C0504C0CE018C
S113026001960E947A0489818F3FC9F38D3231F05F
S1130270833341F483E08093A30113C081E080932E
S1130280A2010FC00E94D60580E790E00E94FB0502
S11302902FEF89E698E1215080409040E1F700C0BB
S11302A000000F90DF91CF9108958091A2018130D9
S11302B039F018F0823039F008950E9497000895BB
S11302C00E94D20008950E941A01089560E084E01B
S11302D00E94D30661E085E00E94D30661E086E0D7
S11302E00E94D3060E9418048FE990E00E94F00E49
S11302F06DE080E00E94CE0E40E067E081E00E9465
S11303008508ECE9F1E081E0808311821282138296
S1130310089561E084E00E94D30660E085E00E94D5
S1130320D30661E086E00E94D30680E890E00E9454
S113033006048AEB90E00E94F00E6DE080E00E94DB
S1130340CE0E40E067E081E00E948508ECE9F1E030
S1130350108281E0818312821382089561E084E037
S11303600E94D30661E085E00E94D30660E086E047
S11303700E94D3068EEF90E00E94060488ED90E080
S11303800E94F00E6DE080E00E94CE0E40E067E037
S113039081E00E948508ECE9F1E01082118281E09D
S11303A082831382089561E084E00E94D30661E0B1
S11303B085E00E94D30660E086E00E94D3068EEFBB
S11303C090E00E94060484EF90E00E94F00E6DE03D
S11303D080E00E94CE0E41E067E081E00E94850843
S11303E0ECE9F1E010821182128281E083830895A6
S11303F08F929F92AF92BF92CF92DF92EF92FF9231
S1130400CF93DF9300D0CDB7DEB71A8219826FC0C5
S1130410CE0101960E94AB070E94D60584E091E0CC
S11304200E94FB0589809A80282D392D40E050E0F8
S113043060E070E080E090E00E940C068BE091E0C8
S11304400E94FB0560E082E00E94E0058091A1012A
S113045090E029813A818217930758F08EE091E069
S11304600E94FB0580919C01811138C00E946601A5
S113047035C08217930788F48091A00190E0281773
S1130480390758F48CE191E00E94FB0580919D01AD
S1130490811124C00E94890121C08091A00190E0B3
S11304A02817390770F02B34310558F48DE291E0A8
S11304B00E94FB0580919E01811110C00E94AE0133
S11304C00DC02B34310550F084EF90E00E94FB0501
S11304D080919F01811102C00E94D3012FEF89E610
S11304E098E1215080409040E1F700C000008091E5
S11304F0A301813009F48CCF0F900F90DF91CF913D
S1130500FF90EF90DF90CF90BF90AF909F908F902F
S1130510089541EA51E060E180E00E94470440EA26
S113052051E060E280E00E944704813049F50E9476
S1130530D6058CE391E00E94FB052091A10130E0F7
S113054040E050E060E070E080E090E00E940C0643
S113055060E082E00E94E00583E491E00E94FB05F4
S11305602091A00130E040E050E060E070E080E0E5
S113057090E00E940C068091A3018330E1F308957A
S11305800E94D6058AE491E00E94FB052FEF89E6DC
S113059098E1215080409040E1F700C000000895A8
S11305A0EF92FF921F93CF93DF931F92CDB7DEB7E5
S11305B07C018FEF898311E029C0CE0101960E944E
S11305C07A0489818F3F21F49091A3019230A9F399
S11305D00E947C05898190ED980F9A30D8F41130EF
S11305E019F0123031F010C08053F70180831F5F7F
S11305F00BC0F7019081990F292F220F220F920F20
S1130600890F805380831F5F8FEF89831330C8F273
S113061081E001C080E00F90DF91CF911F91FF90A6
S1130620EF9008951F93CF93DF931F92CDB7DEB75A
S113063019820E94D6058CE391E00E94FB058FE0AD
S11306400E94FB04CE0101960E94D002182F8CE078
S11306500E94FB041130C9F02FEF84E39CE0215089
S113066080409040E1F700C000000E94D60580E77A
S113067090E00E94FB052FEF89E698E1215080402D
S11306809040E1F700C000008BC02FEF84E39CE0B2
S1130690215080409040E1F700C0000089818093A0
S11306A0A10160E082E00E94E00583E491E00E9401
S11306B0FB058FE00E94FB04CE0101960E94D0024C
S11306C0182F8CE00E94FB041130C9F02FEF84E353
S11306D09CE0215080409040E1F700C000000E945F
S11306E0D60580E790E00E94FB052FEF89E698E1AC
S11306F0215080409040E1F700C0000051C02FEF2E
S113070084E39CE0215080409040E1F700C0000069
S113071089818093A0014091A101481790F58B3401
S113072080F560E180E00E941D044091A00160E238
S113073080E00E941D04813081F40E94D60582E588
S113074091E00E94FB052FEF89E698E1215080405B
S11307509040E1F700C000000FC00E94D6058AE473
S113076091E00E94FB052FEF89E698E1215080403B
S11307709040E1F700C000001092A3011092A20182
S11307800FC00E94D6058BE591E00E94FB052FEF78
S113079089E698E1215080409040E1F700C00000D4
S11307A00F90DF91CF911F9108950E94D60562E0CA
S11307B081E00E94E00588E691E00E94FB0561E08B
S11307C082E00E94E00584E791E00E94FB052FEFA0
S11307D088E09DE3215080409040E1F700C0000094
S11307E08091A301813049F028F0823049F08330B0
S11307F051F0F6CF0E945501F3CF0E94F801F0CFDB
S11308000E941203EDCF0E948902EACF811524E0F1
S1130810920760F4AC0160E080E00E940E0C41E0BD
S113082060E080E00E94380B81E0089580E0089544
S113083060E080E00E94D70B08951F93CF93DF936D
S11308408830F8F4D42F162FC82F0E94E10D8C2F76
S113085090E0880F991F806A0E940E0E812F0E94DB
S1130860470E8D2F0E94470EC82F893009F4C0E02F
S11308700E94F60D8FE19EE40197F1F700C000009D
S113088001C0C0E08C2FDF91CF911F9108950F9389
S11308901F93CF93DF93883020F54115510519F14B
S11308A08A01D62FC82F0E94E10D8C2F90E0880F6B
S11308B0991FC82FC06A8C2F0E940E0E8D2F0E9484
S11308C0470E0E94F90D8C2F0E942A0E60E0C80189
S11308D00E945D0EC82F8A3009F4C0E00E94F60D14
S11308E003C0C0E001C0C0E08C2FDF91CF911F9105
S11308F00F9108957F928F929F92AF92BF92CF9261
S1130900DF92EF92FF920F931F93CF93DF931F9287
S1130910CDB7DEB7009709F45EC06C018FEFF60126
S11309208083912C712C51C0A92CB12CF501E9576D
S1130930FE4F808040E0682D82E00E94850810E030
S113094039C0E12EF12CF701ED57FE4F0081AE01C5
S11309504F5F5F4F602F83E00E940D0999819111D1
S113096028C08FE39CE90197F1F700C00000AE01B5
S11309704F5F5F4F602F83E00E940D0907C0AE01F7
S11309804F5F5F4F602F83E00E940D0989818823A8
S1130990B1F3C501880F991F880F991F85579E4F82
S11309A0FC01EE0DFF1D8081F60180837724739492
S11309B003C01F5F143028F241E0682D82E00E94DA
S11309C08508F1E07F1629F0939483E0891508F0F7
S11309D0ABCF81E001C080E00F90DF91CF911F91F8
S11309E00F91FF90EF90DF90CF90BF90AF909F90CA
S11309F08F907F9008951F93CF93DF931F92CDB76D
S1130A00DEB7182F40E060E081E00E94850840E0F6
S1130A1061E081E00E948508BE016F5F7F4F80E046
S1130A200E94E00969816F70812F807F682B698340
S1130A3080E00E94C60941E062E081E00E948508EE
S1130A4022E02A95F1F700C040E062E081E00E94D4
S1130A50850882E08A95F1F700C0BE016F5F7F4F81
S1130A6080E00E94E00920E1129FC0011124698105
S1130A706F70682B698380E00E94C60941E062E0E0
S1130A8081E00E94850882E08A95F1F700C040E089
S1130A9062E081E00E94850822E02A95F1F700C017
S1130AA00F90DF91CF911F9108952FEB8AED90E085
S1130AB0215080409040E1F700C0000082E00E9495
S1130AC0FB0488E20E94FB042AE62A95F1F700C0A1
S1130AD08CE00E94FB048AE68A95F1F700C081E06D
S1130AE00E94FB048FE99FE00197F1F700C000002A
S1130AF086E00E94FB0408951F93CF93DF931F9217
S1130B00CDB7DEB7182F41E060E081E00E94850890
S1130B1040E061E081E00E948508BE016F5F7F4F85
S1130B2080E00E94E00969816F70812F807F682BCB
S1130B30698380E00E94C60941E062E081E00E948E
S1130B40850822E02A95F1F700C040E062E081E0E8
S1130B500E94850882E08A95F1F700C0BE016F5FAC
S1130B607F4F80E00E94E00920E1129FC001112420
S1130B7069816F70682B698380E00E94C60941E037
S1130B8062E081E00E94850882E08A95F1F700C066
S1130B9040E062E081E00E94850822E02A95F1F7B6
S1130BA000C00F90DF91CF911F91089581E00E94C2
S1130BB0FB048FE99FE00197F1F700C0000008955E
S1130BC0833098F4683298F4813019F0823039F027
S1130BD010C080E8860F0E94FB0481E0089580EC39
S1130BE0860F0E94FB0481E0089580E0089580E070
S1130BF0089581E00895CF93DF93EC01892B29F4C4
S1130C0080E007C00E947C05219688818111FACF7B
S1130C1081E0DF91CF9108952F923F924F925F929E
S1130C206F927F928F929F92AF92BF92CF92DF92F8
S1130C30EF92FF920F931F93CF93DF93CDB7DEB75D
S1130C406E970FB6F894DEBF0FBECDBF822E3C8BDD
S1130C504D8B5E8B762E672E382E292EA0E00E94B7
S1130C606910B4F40E9422108F8AEC89E88FED8910
S1130C70E98FEE89EA8F7B8E6C8E3D8E2E8E822ECE
S1130C803C8B4D8B5E8B762E672E382E292E08C01A
S1130C901F8A188E198E1A8E1B8E1C8E1D8E1E8E08
S1130CA0912C33C0492C092C000C55080F2EFAE066
S1130CB0AF2EF02DB12CC12CD12CE12CF12C00E065
S1130CC010E0282D3C894D895E89672D762D832D72
S1130CD0922D0E94920FE1E0F0E0EC0FFD1FE40D75
S1130CE0F51D2083282D3C894D895E89672D762D3D
S1130CF0832D922D0E94940F822E3C8B4D8B5E8B04
S1130D00762E672E382E292E9394282D3C894D89D2
S1130D105E89672D762D832D922DA9E00E9469109E
S1130D2009F004F6E1E0F0E0EC0FFD1FE90DF11D20
S1130D3097FCFA9580822F89388D498D5A8D6B8D59
S1130D407C8D8D8D9E8DA0E00E9469108CF48DE2C7
S1130D500E947C050DC0E1E0F0E0EC0FFD1FE90D01
S1130D60F11D97FCFA958081805D0E947C059A9420
S1130D7099208CF76E960FB6F894DEBF0FBECDBFE8
S1130D80DF91CF911F910F91FF90EF90DF90CF9063
S1130D90BF90AF909F908F907F906F905F904F9097
S1130DA03F902F900895633008F0C9C0883008F050
S1130DB0C8C0613009F447C020F0623009F485C02E
S1130DC0C2C090E08830910508F0BFC0FC01E65D28
S1130DD0FF4F0C947D0F41E060E081E00E948508A4
S1130DE081E0089541E061E081E00E94850881E0AE
S1130DF0089541E062E081E00E94850881E0089561
S1130E0041E063E081E00E94850881E0089541E0CB
S1130E1064E081E00E94850881E0089541E065E096
S1130E2081E00E94850881E0089541E066E081E068
S1130E300E94850881E0089541E067E081E00E9416
S1130E40850881E0089590E08830910508F07FC01E
S1130E50FC01EE5CFF4F0C947D0F40E060E081E00C
S1130E600E94850881E0089540E061E081E00E94ED
S1130E70850881E0089540E062E081E00E948508F1
S1130E8081E0089540E063E081E00E94850881E00C
S1130E90089540E064E081E00E94850881E00895BF
S1130EA040E065E081E00E94850881E0089540E02B
S1130EB066E081E00E94850881E0089540E067E0F3
S1130EC081E00E94850881E0089590E088309105D2
S1130ED008F03FC0FC01E65CFF4F0C947D0F60E01E
S1130EE081E00E94840981E0089561E081E00E942C
S1130EF0840981E0089562E081E00E94840981E030
S1130F00089563E081E00E94840981E0089564E02B
S1130F1081E00E94840981E0089565E081E00E94F7
S1130F20840981E0089566E081E00E94840981E0FB
S1130F30089567E081E00E94840981E0089580E0DB
S1130F40089580E0089581E0089581E0089581E0A6
S1130F50089581E008950F931F93CF93DF9300D0FA
S1130F60CDB7DEB7009751F18C0180E00E941208E2
S1130F70BE016F5F7F4F80E00E94210829813A8182
S1130F80A8E8B3E10E94830F9B01AC01012E1AE093
S1130F9056954795379527951A95D1F7102DADECB1
S1130FA0BCEC0E94830F96958795969587959695A8
S1130FB08795F8019183808381E001C080E00F90E0
S1130FC00F90DF91CF911F910F9108950E947F00A0
S1130FD00E94D50380E090E0089587B1806487B9CA
S1130FE087B18F7787B987B18F7D87B986B18F7DB8
S1130FF086B980B78F7D80BF80B78F7B80BF80B775
S11310008F7780BF86B1877F86B986B1816086B9C4
S113101086B1826086B986B1846086B986B18068FB
S113102086B90895803258F497B1907E97B997B1F4
S1131030892B87B986B1806486B981E0089580E000
S11310400895823028F56115710521F1882329F06E
S11310508130B9F021C0019602C080E090E034995B
S113106004C0803523EC9207B0F3349B17C086B1DB
S1131070806186B984B195B1FB019183808381E05D
S1131080089584B195B1FB019183808381E0089533
S113109080E0089580E0089581E0089580E0089557
S11310A01F920F920FB60F9211242F933F934F93D9
S11310B05F936F937F938F939F93AF93BF93EF93BC
S11310C0FF93E091A401F091A501309709F00995EF
S11310D0FF91EF91BF91AF919F918F917F916F910C
S11310E05F914F913F912F910F900FBE0F901F90E2
S11310F0189580EF8ABB9FEF97BB84BB11BA1BBACC
S113110018BA15BA84EF82BB0895843008F07BC006
S1131110683008F07AC041113CC0813099F028F061
S11311208230E9F0833041F172C02BB381E090E06A
S113113002C0880F991F6A95E2F7809582238BBBC2
S113114081E0089528B381E090E002C0880F991FE0
S11311506A95E2F78095822388BB81E0089525B3E0
S113116081E090E002C0880F991F6A95E2F78095AC
S1131170822385BB81E0089522B381E090E002C020
S1131180880F991F6A95E2F78095822382BB81E0DC
S113119008954130F1F5813091F028F08230D9F092
S11311A0833029F138C02BB381E090E002C0880F6E
S11311B0991F6A95E2F7822B8BBB81E0089528B3CF
S11311C081E090E002C0880F991F6A95E2F7822BB4
S11311D088BB81E0089525B381E090E002C0880FC8
S11311E0991F6A95E2F7822B85BB81E0089522B3AB
S11311F081E090E002C0880F991F6A95E2F7822B84
S113120082BB81E0089580E0089580E0089581E044
S1131210089580E0089581E00895843008F06CC05A
S1131220683008F06BC04115510509F469C081307C
S1131230F1F030F0823091F1833009F446C062C09D
S113124079B381E090E09C01062E02C0220F331F87
S11312500A94E2F7872F90E08223932302C09595A6
S113126087956A95E2F7FA01808381E0089576B361
S113127081E090E09C01062E02C0220F331F0A94E5
S1131280E2F7872F90E08223932302C095958795F8
S11312906A95E2F7FA01808381E0089573B381E0EF
S11312A090E09C01062E02C0220F331F0A94E2F73D
S11312B0872F90E08223932302C0959587956A95A2
S11312C0E2F7FA01808381E0089570B381E090E051
S11312D09C01062E02C0220F331F0A94E2F7872FC7
S11312E090E08223932302C0959587956A95E2F74F
S11312F0FA01808381E0089580E0089580E00895F4
S113130080E0089581E008958430D0F56830D0F508
S1131310813091F028F08230D9F0833029F134C043
S11313202BB381E090E002C0880F991F6A95E2F721
S113133082278BBB81E0089528B381E090E002C04E
S1131340880F991F6A95E2F7822788BB81E0089588
S113135025B381E090E002C0880F991F6A95E2F7F7
S1131360822785BB81E0089522B381E090E002C02A
S1131370880F991F6A95E2F7822782BB81E008955E
S113138080E0089580E0089581E008958430A0F419
S1131390813049F028F0823049F0833051F00EC09A
S11313A06BBB81E0089568BB81E0089565BB81E073
S11313B0089562BB81E0089580E0089581E0089576
S11313C08430F8F461157105F1F0813059F028F09A
S11313D0823069F0833081F018C089B3FB018083C7
S11313E081E0089586B3FB01808381E0089583B38F
S11313F0FB01808381E0089580B3FB01808381E059
S1131400089580E0089580E0089581E00895833090
S113141008F072C0643008F071C0813081F120F0AE
S1131420823009F457C06CC08BB780648BBF6130C5
S113143071F028F0623099F06330C9F063C085B769
S11314408E7F85BF85B78D7F85BF81E0089585B781
S1131450816085BF85B78D7F85BF81E0089585B79D
S11314608E7F85BF85B7826085BF81E0089585B78B
S1131470816085BF85B7826085BF81E008958BB7A1
S113148080688BBF613071F028F0623099F063306E
S1131490C9F03AC085B78B7F85BF85B7877F85BF85
S11314A081E0089585B7846085BF85B7877F85BF50
S11314B081E0089585B78B7F85BF85B7886085BF38
S11314C081E0089585B7846085BF85B7886085BF4E
S11314D081E008958BB780628BBF623019F063306E
S11314E031F014C084B78F7B84BF81E0089584B742
S11314F0806484BF81E0089580E0089580E00895C9
S113150081E0089581E0089581E0089581E00895DF
S1131510833068F46115710561F0E82FF0E0EE0F97
S1131520FF1FEA55FE4F7183608381E0089580E0D8
S1131530089580E008951F920F920FB60F92112420
S11315402F933F934F935F936F937F938F939F93C7
S1131550AF93BF93EF93FF93E091A601F091A7019E
S1131560309709F00995FF91EF91BF91AF919F9149
S11315708F917F916F915F914F913F912F910F9038
S11315800FBE0F901F9018951F920F920FB60F92D7
S113159011242F933F934F935F936F937F938F9374
S11315A09F93AF93BF93EF93FF93E091A801F091C2
S11315B0A901309709F00995FF91EF91BF91AF917F
S11315C09F918F917F916F915F914F913F912F9157
S11315D00F900FBE0F901F9018951F920F920FB689
S11315E00F9211242F933F934F935F936F937F93A5
S11315F08F939F93AF93BF93EF93FF93E091AA01CF
S1131600F091AB01309709F00995FF91EF91BF91EB
S1131610AF919F918F917F916F915F914F913F9186
S11316202F910F900FBE0F901F9018958FB7806861
S11316308FBF089583B7806483BF83B7877F83BFD9
S113164083B78F7E83BF83B78F7D83BF89B78D7F39
S113165089BF89B78E7F89BF1CBE12BE83B78160E4
S113166083BF83B7826083BF83B78B7F83BF0895B3
S1131670833008F08AC0633008F089C0433008F032
S113168088C0813019F120F0823009F460C083C031
S1131690413061F018F0423089F07FC083B7806137
S11316A083BF83B78F7D83BF81E0089583B78F7E27
S11316B083BF83B7806283BF81E0089583B780616D
S11316C083BF83B7806283BF81E00895613019F0DE
S11316D06230F9F064C0413061F018F0423089F0B2
S11316E060C08FB580648FBD8FB58F778FBD81E06B
S11316F008958FB58F7B8FBD8FB580688FBD81E0D6
S113170008958FB580648FBD8FB580688FBD81E0EB
S11317100895413061F018F0423089F044C08FB52B
S113172080618FBD8FB58F7D8FBD81E008958FB5AA
S11317308F7E8FBD8FB580628FBD81E008958FB598
S113174080618FBD8FB580628FBD81E00895413087
S113175061F018F0423089F028C085B5806185BDFC
S113176085B58F7D85BD81E0089585B58F7E85BD66
S113177085B5806285BD81E0089585B5806185BDAC
S113178085B5806285BD81E0089580E0089580E09C
S1131790089580E0089581E0089581E0089581E04E
S11317A0089581E0089581E0089581E008958330EB
S11317B068F5633068F5813061F018F08230F1F03B
S11317C029C083B78F7E83BF83B78F7D83BF81E0BA
S11317D00895613019F0623049F01EC08FB58F7BD7
S11317E08FBD8FB58F778FBD81E008958FB58F7EC4
S11317F08FBD8FB58F7D8FBD81E0089585B58F7EB8
S113180085BD85B58F7D85BD81E0089580E008950F
S113181080E0089581E0089581E008958330D8F44C
S11318206330D8F4813039F018F0823089F017C071
S11318304CBF81E00895613019F0623029F011C085
S11318405BBD4ABD81E0089559BD48BD81E008955E
S113185043BD81E0089580E0089580E0089581E02B
S1131860089581E008951F920F920FB60F921124EC
S11318702F933F934F935F936F937F938F939F9394
S1131880AF93BF93EF93FF938091B2019091B30113
S113189001969093B3018093B201892B59F0109271
S11318A0B3011092B201E091C001F091C1013097EF
S11318B009F00995FF91EF91BF91AF919F918F919D
S11318C07F916F915F914F913F912F910F900FBE38
S11318D00F901F9018951F920F920FB60F9211241C
S11318E02F933F934F935F936F937F938F939F9324
S11318F0AF93BF93EF93FF93E6EBF1E0848195817F
S1131900019695838483892B61F014BC1092BB01EA
S11319101092BA01E091C601F091C701309709F025
S11319200995FF91EF91BF91AF919F918F917F9115
S11319306F915F914F913F912F910F900FBE0F9038
S11319401F9018951F920F920FB60F9211240F90AB
S11319500FBE0F901F9018951F920F920FB60F9203
S113196011242F933F934F935F936F937F938F93A0
S11319709F93AF93BF93EF93FF938091B0019091A6
S1131980B10101969093B1018093B001892B89F044
S11319901092B1011092B001E091BE01F091BF012B
S11319A0309739F08091B501882319F01092B50170
S11319B00995FF91EF91BF91AF919F918F917F9185
S11319C06F915F914F913F912F910F900FBE0F90A8
S11319D01F9018951F920F920FB60F9211242F93F8
S11319E03F934F935F936F937F938F939F93AF93A3
S11319F0BF93EF93FF938091AE019091AF01019655
S1131A009093AF018093AE01892B89F01092AF01BE
S1131A101092AE01E091BE01F091BF01309739F010
S1131A208091B401882319F01092B4010995FF91B3
S1131A30EF91BF91AF919F918F917F916F915F9142
S1131A404F913F912F910F900FBE0F901F901895BB
S1131A501F920F920FB60F9211242F933F934F931F
S1131A605F936F937F938F939F93AF93BF93EF9302
S1131A70FF93E6EBF1E08281938101969383828365
S1131A80892B69F01DBC1CBC1092B9011092B801DD
S1131A90E091C401F091C501309709F00995FF91D7
S1131AA0EF91BF91AF919F918F917F916F915F91D2
S1131AB04F913F912F910F900FBE0F901F9018954B
S1131AC01F920F920FB60F9211242F933F934F93AF
S1131AD05F936F937F938F939F93AF93BF93EF9392
S1131AE0FF938091AC019091AD0101969093AD016B
S1131AF08093AC01892B59F01092AD011092AC0186
S1131B00E091BC01F091BD01309709F00995FF9176
S1131B10EF91BF91AF919F918F917F916F915F9161
S1131B204F913F912F910F900FBE0F901F901895DA
S1131B301F920F920FB60F9211242F933F934F933E
S1131B405F936F937F938F939F93AF93BF93EF9321
S1131B50FF93E6EBF1E0808191810196918380838C
S1131B60892B61F012BE1092B7011092B601E09178
S1131B70C201F091C301309709F00995FF91EF91EB
S1131B80BF91AF919F918F917F916F915F914F9191
S1131B903F912F910F900FBE0F901F90189581B118
S1131BA08D7F81B981B18E7F81B988E080B986B794
S1131BB08E7F86BF86B7806486BF86B7846086BF03
S1131BC0089584EA86BF80E090E001C0019606B6DD
S1131BD007FC04C0803523EC9207C0F381B1887FF1
S1131BE0883011F481E0089583E0089584E986BF84
S1131BF0089584EA86BF80E090E001C0019606B6AD
S1131C0007FC04C0803523EC9207C0F381B1887FC0
S1131C10803111F081E0089584E008959FEF980FDA
S1131C209F3EA0F483B984E886BF80E090E001C0C1
S1131C30019606B607FC04C0803523EC9207C0F376
S1131C4081B1887F883121F481E0089586E0089588
S1131C5087E008959FEF980F9F3EA8F48F5F83B9A4
S1131C6084E886BF80E090E001C0019606B607FCD8
S1131C7004C0803523EC9207C0F381B1887F80349F
S1131C8021F481E0089586E0089588E0089583B9F9
S1131C9084E886BF80E090E001C0019606B607FCA8
S1131CA004C0803523EC9207C0F381B1887F883269
S1131CB011F481E0089589E00895009711F16230EC
S1131CC010F5613011F020E801C020EC246026BF3B
S1131CD020E030E002C02F5F3F4F06B607FC04C08F
S1131CE0203543EC3407B8F321B1287F203521F0A7
S1131CF021B1287F283549F423B1FC01208381E0F8
S1131D00089582E0089582E008958AE008951F927C
S1131D100F920FB60F9211242F933F934F935F931B
S1131D206F937F938F939F93AF93BF93EF93FF939F
S1131D30E091C801F091C901309709F00995FF912C
S1131D40EF91BF91AF919F918F917F916F915F912F
S1131D504F913F912F910F900FBE0F901F901895A8
S1131D608BB18D7F8BB983E389B910BC8BB18E7F26
S1131D708BB98AB18F778AB98AB18F7B8AB98AB1D4
S1131D808F7D8AB98AB18B7F8AB986E880BD8AB192
S1131D908F7E8AB98AB188608AB908958330D0F475
S1131DA0882329F0823099F017C0019602C080E0A0
S1131DB090E05D9904C0803523EC9207B0F35D9BFD
S1131DC00DC08BB180628BB96CB981E008956CB998
S1131DD081E0089580E0089581E0089580E0089509
S1131DE0CF93DF93EC01892B31F480E008C080E0CD
S1131DF00E94CE0E219668816111F9CF81E0DF91B6
S1131E00CF9108951F920F920FB60F9211242F9322
S1131E103F934F935F936F937F938F939F93AF936E
S1131E20BF93EF93FF93E091CE01F091CF013097F0
S1131E3009F00995FF91EF91BF91AF919F918F9117
S1131E407F916F915F914F913F912F910F900FBEB2
S1131E500F901F9018951F920F920FB60F92112496
S1131E602F933F934F935F936F937F938F939F939E
S1131E70AF93BF93EF93FF93E091CC01F091CD0129
S1131E80309709F00995FF91EF91BF91AF919F9120
S1131E908F917F916F915F914F913F912F910F900F
S1131EA00FBE0F901F9018951F920F920FB60F92AE
S1131EB011242F933F934F935F936F937F938F934B
S1131EC09F93AF93BF93EF93FF93E091CA01F09177
S1131ED0CB01309709F00995FF91EF91BF91AF9134
S1131EE09F918F917F916F915F914F913F912F912E
S1131EF00F900FBE0F901F901895EE0FFF1F0590C7
S1131F00F491E02D0994A29FB001B39FC001A39F57
S1131F10700D811D1124911DB29F700D811D11241E
S1131F20911D0895689401C0E894F92FF12B12F0E3
S1131F300C94C60FA0E0B0E0E0EAFFE00C94381087
S1131F40092E059422F40E942210112392F4F0E841
S1131F500F26FFEFE094F09400951095B094C09490
S1131F60D094A194BF0ACF0ADF0AEF0AFF0A0F0B2D
S1131F701F0B0E94D10F07FC0E942210CDB7DEB7C1
S1131F80ECE00C945410689401C0E8948F929F92F2
S1131F90CF93DF930E94D10FDF91CF919F908F90C9
S1131FA0089588249924F401E401B0E49F93AA27B6
S1131FB09A158B049C04ED05FE05CF05D007A107F7
S1131FC098F4AD2FDC2FCF2FFE2FE92D982C892EDE
S1131FD0982F872F762F652F542F432F322F2227A8
S1131FE0B85031F7BF9127C01B2EBF91BB27220FDA
S1131FF0331F441F551F661F771F881F991F881C96
S1132000991CEE1FFF1FCC1FDD1FAA1FBB1F8A14C4
S11320109B04EC05FD05CE05DF05A007B10748F0DC
S11320208A189B08EC09FD09CE09DF09A00BB10B46
S113203021601A94E1F62EF49401AF01BE01CD01A2
S1132040000C089560957095809590953095409515
S1132050509521953F4F4F4F5F4F6F4F7F4F8F4F9D
S11320609F4F08952F923F924F925F926F927F926B
S11320708F929F92AF92BF92CF92DF92EF92FF9294
S11320800F931F93CF93DF93CDB7DEB7CA1BDB0B40
S11320900FB6F894DEBF0FBECDBF09942A883988E5
S11320A048885F846E847D848C849B84AA84B984EC
S11320B0C884DF80EE80FD800C811B81AA81B981F8
S11320C0CE0FD11D0FB6F894DEBF0FBECDBFED010C
S11320D008950024A7FD00942A17300540055005F3
S11120E060057005800590050895F894FFCF03
S11320EE312E20446973706C61792054656D7000D3
S11320FE57726F6E6720496E7075742100322E20F0
S113210E53657420545F4C202620545F4800332EB0
S113211E2047657420545F4C202620545F480043AA
S113212E757272656E742054656D70657261747526
S113213E7265206973204C6F770043757272656EF9
S113214E742054656D70657261747572652069735F
S113215E204E6F726D616C0043757272656E7420E1
S113216E54656D706572617475726520697320486B
S113217E6967680043617574696F6E20466972659C
S113218E2021210054656D703A20002043004C6FCD
S113219E772054656D70204D6F6465004E6F726DBF
S11321AE616C2054656D70204D6F646500486967DD
S11321BE682054656D70204D6F646500545F4C202B
S11321CE3D2000545F48203D20004661696C6564E3
S11321DE21005375636365737321004C6F676963E4
S11321EE204572726F72210054656D706572617450
S11321FE75726500436F6E74726F6C2053797374CD
S113220E656D0004050607040506073738392F34B3
S10F221E35362A3132332D63303D2B005D
S9030000FC
